:020000040800F2
:1000000000000220E1910008010D00080F0D00081A
:10001000150D00081B0D0008210D00080000000050
:10002000000000000000000000000000270D000894
:10003000350D000800000000430D0008510D0008B8
:100040003192000831920008319200083192000884
:100050003192000831920008319200083192000874
:100060003192000831920008319200083192000864
:100070003192000831920008319200083192000854
:100080003192000831920008319200083192000844
:100090003192000831920008319200083192000834
:1000A0003192000831920008319200083192000824
:1000B0003192000831920008319200083192000814
:1000C0003192000831920008319200083192000804
:1000D00031920008319200083192000831920008F4
:1000E00031920008319200083192000831920008E4
:1000F00031920008319200083192000831920008D4
:1001000031920008319200083192000831920008C3
:1001100031920008319200083192000831920008B3
:1001200031920008319200083192000831920008A3
:100130003192000831920008319200083192000893
:100140003192000831920008319200085D0D0008DC
:100150003192000831920008319200083192000873
:100160003192000831920008319200083192000863
:10017000319200083192000831920008000000001E
:080180003192000831920008E1
:1001880010B5054C237833B9044B13B10448AFF3C9
:1001980000800123237010BD9000002000000000A3
:1001A8003494000808B5034B1BB103490348AFF367
:1001B800008008BD0000000094000020349400086E
:1001C80053B94AB9002908BF00281CBF4FF0FF31B6
:1001D8004FF0FF3000F07AB9ADF1080C6DE904CEAC
:1001E80000F006F8DDF804E0DDE9022304B070470A
:1001F8002DE9F0478C460D460446089E002B51D148
:100208008A4217466DD9B2FA82FEBEF1000F0BD0B2
:10021800CEF1200C01FA0EF520FA0CFC02FA0EF7CA
:100228004CEA050C00FA0EF44FEA174A250CBCFB01
:10023800FAF81FFA87F90AFB18CC45EA0C4508FBBF
:1002480009F3AB420AD9ED1908F1FF3280F0238196
:10025800AB4240F22081A8F102083D44ED1AA4B255
:10026800B5FBFAF00AFB105544EA054400FB09F90E
:10027800A14509D9E41900F1FF3380F00A81A145AD
:1002880040F2078102383C44A4EB090440EA0840E4
:100298000021002E61D024FA0EF40023346073602C
:1002A800BDE8F0878B4207D9002E54D0002186E89C
:1002B80021000846BDE8F087B3FA83F1002940F031
:1002C8008E80AB4202D3824200F2FA80841A65EB38
:1002D80003050120AC46002E3FD086E81010BDE88B
:1002E800F08712B90127B7FBF2F7B7FA87FEBEF11C
:1002F800000F34D1EB1B3A0C1FFA87FC0121B3FB2A
:10030800F2F8250C02FB183345EA03450CFB08F309
:10031800AB4207D9ED1908F1FF3002D2AB4200F227
:10032800D1808046ED1AA3B2B5FBF2F002FB10555E
:1003380043EA05440CFB00FCA44507D9E41900F185
:10034800FF3302D2A44500F2B8801846A4EB0C048F
:1003580040EA08409DE731463046BDE8F087CEF1D7
:10036800200405FA0EF307FA0EF720FA04F83A0CFF
:1003780025FA04F448EA0308B4FBF2F14FEA1845F9
:1003880002FB11441FFA87FC45EA044501FB0CF304
:10039800AB4200FA0EF409D9ED1901F1FF3080F0F3
:1003A8008A80AB4240F2878002393D44EB1A1FFA3B
:1003B80088F5B3FBF2F002FB103345EA034500FB76
:1003C8000CF3AB4207D9ED1900F1FF386FD2AB42FD
:1003D8006DD902383D44EB1A40EA01418FE7C1F17B
:1003E800200722FA07F88B4005FA01F448EA0303CC
:1003F80020FA07FE4FEA134CFD404EEA040EB5FB07
:10040800FCF94FEA1E440CFB19551FFA83F844EA1D
:10041800054509FB08F4AC4202FA01F200FA01FAB8
:1004280008D9ED1809F1FF3043D2AC4241D9A9F1FE
:1004380002091D442D1B1FFA8EFEB5FBFCF00CFBB8
:1004480010554EEA054400FB08F8A04507D9E41802
:1004580000F1FF3529D2A04527D902381C4440EACB
:100468000940A4EB0804A0FB02894C45C6464D464A
:1004780015D312D056B1BAEB0E0364EB050404FA97
:1004880007F7CB401F43CC40376074600021BDE8BC
:10049800F0871846F8E69046E0E6C245EAD2B8EB9F
:1004A800020E69EB03050138E4E72846D7E7404622
:1004B80091E78146BEE7014678E702383C4445E7C4
:1004C800084608E7A8F102083D442BE7704700BF3B
:1004D80080B58CB000AF07F11C0300221A605A6087
:1004E8009A60DA601A610023BB617B4A7A4B1B6B06
:1004F80043F010031363784B1B6B03F01003BB61CD
:10050800BB6900237B61744A734B1B6B43F0040384
:100518001363714B1B6B03F004037B617B6900233E
:100528003B616D4A6C4B1B6B43F0800313636A4B52
:100538001B6B03F080033B613B690023FB60664A49
:10054800654B1B6B43F001031363634B1B6B03F099
:100558000103FB60FB680023BB605F4A5E4B1B6BBB
:1005680043F0020313635C4B1B6B03F00203BB6095
:10057800BB6800237B60584A574B1B6B43F008034A
:100588001363554B1B6B03F008037B607B680022E9
:100598000821524801F094F901220121504801F044
:1005A8008FF900224FF440514E4801F089F900229A
:1005B8004FF610714C4801F083F90823FB610123C1
:1005C8003B6200237B620023BB6207F11C031946D0
:1005D800424800F0DBFF0123FB6101233B6200235B
:1005E8007B620023BB6207F11C0319463C4800F0FC
:1005F800CDFF0823FB6102233B6200237B620023BB
:10060800BB620523FB6207F11C031946344800F05E
:10061800BDFF0123FB61354B3B6200237B6207F181
:100628001C031946324800F0B1FF0423FB61002384
:100638003B6200237B6207F11C031946294800F03E
:10064800A5FF4FF48063FB6102233B6200237B62BA
:100658000023BB620523FB6207F11C0319462148EE
:1006680000F094FF4FF44053FB6101233B620023E9
:100678007B620023BB6207F11C031946194800F08E
:1006880085FF4FF61073FB6101233B6200237B62F9
:100698000023BB6207F11C031946134800F076FFDC
:1006A8002023FB6100233B6200237B6207F11C03CC
:1006B80019460D4800F06AFF0223FB610B4B3B62B1
:1006C80000237B6207F11C031946044800F05EFF13
:1006D80000BF3037BD4680BD0038024000100240E0
:1006E8000008024000040240000C02400000121002
:1006F8000000024080B500AF124B134A1A60114B3C
:10070800124A5A600F4B00229A600E4B0022DA60A0
:100718000C4B4FF480421A610A4B00225A61094B74
:1007280000229A61074B0022DA61064B00221A6206
:10073800044802F0E5FD0346002B01D000F02EFA34
:1007480000BF80BDC000002000540040A08601000A
:1007580080B58AB000AF786007F1140300221A60F0
:100768005A609A60DA601A617B681B68194A93427A
:100778002CD100233B61184A174B1B6B43F0020333
:100788001363154B1B6B03F002033B613B694FF48A
:1007980010737B611223BB610123FB6100233B6261
:1007A80004237B6207F1140319460C4800F0EEFE9F
:1007B8000023FB60084A084B1B6C43F400131364C6
:1007C800054B1B6C03F40013FB60FB6800BF283764
:1007D800BD4680BD0054004000380240000402407D
:1007E80080B500AF134B144A1A60124B4FF40072D5
:1007F8005A60104B00229A600E4B0022DA600D4BB3
:100808004FF400721A610B4B0C4A5A61094B0022D3
:100818009A61084B0022DA61064B00221A620548E9
:1008280002F0A6FE0346002B01D000F0B7F900BF86
:1008380080BD00BF14010020003C0040007701008B
:1008480080B58AB000AF786007F1140300221A60FF
:100858005A609A60DA601A617B681B68284A93427A
:100868004AD100233B61274A264B1B6C43F40043C3
:100878001364244B1B6C03F400433B613B69002366
:10088800FB60204A1F4B1B6B43F0010313631D4B96
:100898001B6B03F00103FB60FB680023BB60194A74
:1008A800184B1B6B43F004031363164B1B6B03F0CD
:1008B8000403BB60BB6810237B610223BB61002378
:1008C800FB6100233B6206237B6207F11403194690
:1008D8000D4800F05BFE4FF4A4537B610223BB611B
:1008E8000023FB6100233B6206237B6207F11403AC
:1008F8001946064800F04AFE00BF2837BD4680BDAD
:10090800003C00400038024000000240000802405D
:1009180080B582B000AF00F095FC0123BB7100F0F8
:10092800BBF8FFF7D5FDFFF7E5FEFFF759FF00F02D
:100938003DF900F05BFA00F0E9FA00F011FC08F06C
:1009480043F900214D4804F015F904214B4804F0FF
:1009580011F90821494804F00DF90021484804F02C
:1009680009F90421464804F005F91123FB7108F040
:1009780051F900224FF40051424800F0A1FF012232
:100988004FF48071404800F09BFF00224FF4007143
:100998003D4800F095FFB91D642301223B4804F04F
:1009A8007EFE0346002BE2D1BB79382B12D1384B9F
:1009B80032225A63364B4FF4D7729A63344B4FF452
:1009C800AF72DA63334B4FF4E6725A63314B4FF42C
:1009D800E6729A63BB79342B12D12D4B32225A63BB
:1009E8002B4B4FF4C8729A63294B4FF4DC72DA63CD
:1009F800284B4FF4E1725A63264B4FF4E6729A6320
:100A0800BB79312B03D1234B4FF4B4729A63BB7972
:100A1800322B03D11F4B4FF4C8729A63BB79332B27
:100A280003D11C4B4FF4FA729A63BB79372B05D16B
:100A380001224FF48051134800F042FFBB79362B56
:100A480005D100224FF480510E4800F039FFBB79E0
:100A5800352B8CD10E4B4FF496725A630C4B642293
:100A68009A630B4B6422DA630A4B4FF4D2725A63CF
:100A7800084B4FF4E6729A6379E700BFB40100208F
:100A8800F401002000040240000C0240340200205F
:100A9800000400400018004080B598B000AF07F18E
:100AA800300330220021184608F0FAFB07F11C0336
:100AB80000221A605A609A60DA601A6107F10C0322
:100AC80000221A605A609A60DA600023BB60314ADB
:100AD800304B1B6C43F0805313642E4B1B6C03F09C
:100AE8008053BB60BB6800237B602B4A2A4B1B6882
:100AF80043F480431360284B1B6803F480437B60F6
:100B08007B6801233B634FF480337B630223BB6420
:100B18004FF48003FB6408233B654FF4A8737B659F
:100B28000223BB650723FB6507F13003184603F072
:100B3800BDF90346002B01D000F030F80F23FB610C
:100B480002233B6200237B624FF4A053BB624FF445
:100B58008053FB6207F11C030521184603F016FCBD
:100B68000346002B01D000F019F80123FB60C023D5
:100B78003B6102237B6107F10C03184603F0F8FD83
:100B88000346002B01D000F009F800BF6037BD46CE
:100B980080BD00BF003802400070004080B400AF44
:100BA80000BFBD465DF8047B7047000080B500AF0C
:100BB800174B184A1A60164B4FF482725A60144B3E
:100BC80000229A60124B0022DA60114B00221A614F
:100BD8000F4B00225A610E4B4FF400729A610C4B76
:100BE8000022DA610A4B00221A62094B00225A627B
:100BF800074B00229A62064B0A22DA62044803F085
:100C0800F5FE0346002B01D0FFF7C8FF00BF80BDEB
:100C18005C0100200030014080B58AB000AF7860E8
:100C280007F1140300221A605A609A60DA601A61A8
:100C38007B681B68194A93422BD100233B61184AF1
:100C4800174B5B6C43F480535364154B5B6C03F494
:100C580080533B613B690023FB60114A104B1B6BBF
:100C680043F0010313630E4B1B6B03F00103FB609E
:100C7800FB68E0237B610223BB610023FB61002347
:100C88003B6205237B6207F114031946054800F00F
:100C98007DFC00BF2837BD4680BD00BF0030014045
:100CA800003802400000024080B582B000AF002347
:100CB8007B60104A0F4B5B6C43F4804353640D4BCD
:100CC8005B6C03F480437B607B6800233B60094ACC
:100CD800084B1B6C43F080531364064B1B6C03F0EA
:100CE80080533B603B68072000F00EFC00BF0837CC
:100CF800BD4680BD0038024080B400AF00BFBD468D
:100D08005DF8047B704780B400AFFEE780B400AFA5
:100D1800FEE780B400AFFEE780B400AFFEE780B422
:100D280000AF00BFBD465DF8047B704780B400AFDC
:100D380000BFBD465DF8047B704780B400AF00BFBC
:100D4800BD465DF8047B704780B500AF00F0CCFA73
:100D580000BF80BD80B500AF024801F059F800BF60
:100D680080BD00BF5006002080B584B000AF786019
:100D7800114B1B68002B02D10F4B104A1A600E4B07
:100D88001B68FB600C4B1A687B6813446A469342E5
:100D980007D908F04BFA02460C2313604FF0FF33D3
:100DA80006E0054B1A687B681344034A1360FB6826
:100DB80018461037BD4680BDAC0000201809002039
:100DC80080B400AF084A084BD3F8883043F4700366
:100DD800C2F88830044B4FF000629A6000BFBD46ED
:100DE8005DF8047B704700BF00ED00E080B58EB071
:100DF80000AF07F1280300221A605A609A60DA608F
:100E080007F1200300221A605A603B1D00221A6075
:100E18005A609A60DA601A615A619A61394B3A4AA3
:100E28001A60384B40F24F125A60364B00229A60D3
:100E3800344B42F20F72DA60324B00221A61314BA6
:100E480000229A612F4803F034FE0346002B01D09C
:100E5800FFF7A4FE4FF48053BB6207F1280319463D
:100E6800284803F08BFF0346002B01D0FFF796FEBE
:100E7800244803F049FE0346002B01D0FFF78EFEFD
:100E880000233B6200237B6207F1200319461D48BB
:100E980004F03CFB0346002B01D0FFF77FFE6023E4
:100EA8007B60FA23BB600023FB6000237B613B1D52
:100EB80000221946134803F09BFE0346002B01D07D
:100EC800FFF76CFE6423BB603B1D042219460D48E6
:100ED80003F08EFE0346002B01D0FFF75FFE3B1D9B
:100EE80008221946074803F083FE0346002B01D069
:100EF800FFF754FE034800F0B3F800BF3837BD468B
:100F080080BD00BFB40100200004004080B58CB053
:100F180000AF07F1200300221A605A609A60DA6075
:100F28003B1D00221A605A609A60DA601A615A61A1
:100F38009A612D4B2D4A1A602B4B40F24F125A6082
:100F4800294B00229A60284B42F20F72DA60264B36
:100F580000221A61244B00229A61234803F0A9FD5C
:100F68000346002B01D0FFF719FE4FF480533B6274
:100F780007F1200319461C4803F000FF0346002B25
:100F880001D0FFF70BFE184803F0BEFD0346002B07
:100F980001D0FFF703FE60237B604FF4D273BB6080
:100FA8000023FB6000237B613B1D002219460E488D
:100FB80003F01EFE0346002B01D0FFF7EFFD4FF4B0
:100FC800E673BB603B1D04221946074803F010FE78
:100FD8000346002B01D0FFF7E1FD034800F040F87D
:100FE80000BF3037BD4680BDF40100200018004026
:100FF80080B485B000AF78607B681B68154A93425F
:101008000ED10023FB60144A134B1B6C43F0020300
:101018001364114B1B6C03F00203FB60FB6812E0C6
:101028007B681B680D4A93420DD10023BB600A4AB6
:10103800094B1B6C43F040031364074B1B6C03F014
:101048004003BB60BB6800BF1437BD465DF8047B36
:10105800704700BF000400400038024000180040FC
:1010680080B58AB000AF786007F1140300221A60D7
:101078005A609A60DA601A617B681B68334A934247
:101088003CD100233B61324A314B1B6B43F00203D6
:1010980013632F4B1B6B03F002033B613B69002377
:1010A800FB602B4A2A4B1B6B43F004031363284B4A
:1010B8001B6B03F00403FB60FB6821237B610223A5
:1010C800BB610023FB6100233B6202237B6207F1C3
:1010D800140319461F4800F059FA40237B61022384
:1010E800BB610023FB6100233B6202237B6207F1A3
:1010F80014031946184800F049FA23E07B681B6876
:10110800164A93421ED10023BB60114A104B1B6B39
:1011180043F0020313630E4B1B6B03F00203BB6027
:10112800BB684FF440437B610223BB610023FB6132
:1011380000233B6209237B6207F114031946054823
:1011480000F024FA00BF2837BD4680BD00040040E7
:101158000038024000040240000802400018004025
:1011680080B500AF114B124A1A60104B4FF4E132B0
:101178005A600E4B00229A600C4B0022DA600B4B2F
:1011880000221A61094B0C225A61084B00229A610D
:10119800064B0022DA61054804F034FA0346002BB6
:1011A80001D0FFF7FBFC00BF80BD00BF3402002068
:1011B8000044004080B58AB000AF786007F114039E
:1011C80000221A605A609A60DA601A617B681B68AC
:1011D800194A93422BD100233B61184A174B1B6CC9
:1011E80043F400331364154B1B6C03F400333B6169
:1011F8003B690023FB60114A104B1B6B43F0010352
:1012080013630E4B1B6B03F00103FB60FB680C239D
:101218007B610223BB610023FB6103233B6207233D
:101228007B6207F114031946054800F0AFF900BFC7
:101238002837BD4680BD00BF00440040003802404A
:101248000000024080B500AF0E4A0E4B1B6843F405
:10125800007313600B4A0B4B1B6843F480631360E5
:10126800084A084B1B6843F480731360032000F09E
:101278004BF9002000F008F8FFF716FD0023184688
:1012880080BD00BF003C024080B582B000AF7860EE
:10129800124B1A68124B1B7819464FF47A73B3FB3A
:1012A800F1F3B2FBF3F3184600F063F90346002BA1
:1012B80001D001230EE07B680F2B0AD80022796841
:1012C8004FF0FF3000F02BF9064A7B6813600023CB
:1012D80000E0012318460837BD4680BD0000002005
:1012E800080000200400002080B400AF064B1B78E3
:1012F8001A46064B1B681344044A136000BFBD46D8
:101308005DF8047B704700BF0800002074020020CD
:1013180080B400AF034B1B681846BD465DF8047BDC
:10132800704700BF7402002080B584B000AF7860B9
:10133800FFF7EEFFB8607B68FB60FB68B3F1FF3F27
:1013480005D0094B1B781A46FB681344FB6000BFA5
:10135800FFF7DEFF0246BB68D21AFB689A42F7D352
:1013680000BF1037BD4680BD0800002080B485B09E
:1013780000AF78607B6803F00703FB600C4BDB6809
:10138800BB60BA684FF6FF031340BB60FB681A02E4
:10139800BB68134343F0BF6343F40033BB60044AA4
:1013A800BB68D36000BF1437BD465DF8047B704747
:1013B80000ED00E080B400AF044BDB681B0A03F0CB
:1013C80007031846BD465DF8047B704700ED00E052
:1013D80080B483B000AF0346FB7197F90730002B48
:1013E8000BDB094997F907305B09FA7902F01F020C
:1013F800012000FA02F241F8232000BF0C37BD4655
:101408005DF8047B704700BF00E100E080B483B062
:1014180000AF03463960FB7197F90730002B0ADBF0
:101428000D4997F907303A68D2B21201D2B20B448B
:1014380083F800230AE00949FB7903F00F03043B12
:101448003A68D2B21201D2B20B441A7600BF0C37F6
:10145800BD465DF8047B704700E100E000ED00E068
:1014680080B489B000AFF860B9607A60FB6803F0B7
:101478000703FB61FB69C3F10703042B28BF04239F
:10148800BB61FB690433062B02D9FB69033B00E00F
:1014980000237B610122BB6902FA03F35A1EBB6871
:1014A8001A407B699A4001217B6901FA03F3591EAE
:1014B8007B680B40134318462437BD465DF8047B10
:1014C8007047000080B582B000AF78607B68013B50
:1014D800B3F1807F01D301230FE00A4A7B68013B07
:1014E80053600F214FF0FF30FFF790FF054B0022AC
:1014F8009A60044B07221A60002318460837BD4635
:1015080080BD00BF10E000E080B582B000AF786019
:101518007868FFF72BFF00BF0837BD4680BD80B550
:1015280086B000AF0346B9607A60FB7300237B6125
:10153800FFF740FF78617A68B9687869FFF790FF2C
:10154800024697F90F3011461846FFF75FFF00BFB4
:101558001837BD4680BD80B582B000AF0346FB7129
:1015680097F907301846FFF733FF00BF0837BD4625
:1015780080BD80B582B000AF78607868FFF7A2FFC1
:10158800034618460837BD4680BD000080B489B0C0
:1015980000AF7860396000237B6100233B61002342
:1015A800BB610023FB616BE10122FB6902FA03F3D3
:1015B8007B613B681A687B6913403B613A697B69C8
:1015C8009A4240F05A813B685B68012B0BD03B681C
:1015D8005B68022B07D03B685B68112B03D03B6824
:1015E8005B68122B30D17B689B68BB61FB695B0031
:1015F800032202FA03F3DB43BA691340BB613B6879
:10160800DA68FB695B0002FA03F3BA691343BB614A
:101618007B68BA699A607B685B68BB610122FB6979
:1016280002FA03F3DB43BA691340BB613B685B68AA
:101638001B0903F00102FB6902FA03F3BA691343B9
:10164800BB617B68BA695A607B68DB68BB61FB6910
:101658005B00032202FA03F3DB43BA691340BB6160
:101668003B689A68FB695B0002FA03F3BA691343A3
:10167800BB617B68BA69DA603B685B68022B03D0A0
:101688003B685B68122B23D1FB69DA087B68083258
:1016980053F82230BB61FB6903F007039B000F225C
:1016A80002FA03F3DB43BA691340BB613B681A696A
:1016B800FB6903F007039B0002FA03F3BA691343BB
:1016C800BB61FB69DA087B680832B96943F8221004
:1016D8007B681B68BB61FB695B00032202FA03F3AA
:1016E800DB43BA691340BB613B685B6803F00302E4
:1016F800FB695B0002FA03F3BA691343BB617B68B9
:10170800BA691A603B685B6803F08053002B00F0ED
:10171800B4800023FB605F4A5E4B5B6C43F48043FC
:1017280053645C4B5B6C03F48043FB60FB685A4A70
:10173800FB699B08023352F82330BB61FB6903F055
:1017480003039B000F2202FA03F3DB43BA69134039
:10175800BB617B68514A93422BD07B68504A9342C5
:1017680025D07B684F4A93421FD07B684E4A9342EC
:1017780019D07B684D4A934213D07B684C4A9342F8
:101788000DD07B684B4A934207D07B684A4A934204
:1017980001D107230EE008230CE006230AE0052305
:1017A80008E0042306E0032304E0022302E0012307
:1017B80000E00023FA6902F0030292009340BA693C
:1017C8001343BB613449FB699B080233BA6941F88A
:1017D80023203A4B1B68BB613B69DB43BA69134062
:1017E800BB613B685B6803F48033002B03D0BA69A4
:1017F8003B691343BB61314ABB6913602F4B5B687C
:10180800BB613B69DB43BA691340BB613B685B68FA
:1018180003F40033002B03D0BA693B691343BB615F
:10182800264ABB695360254B9B68BB613B69DB4318
:10183800BA691340BB613B685B6803F48013002BF3
:1018480003D0BA693B691343BB611C4ABB69936007
:101858001A4BDB68BB613B69DB43BA691340BB6168
:101868003B685B6803F40013002B03D0BA693B693B
:101878001343BB61114ABB69D360FB690133FB6148
:10188800FB690F2B7FF690AE00BF2437BD465DF88D
:10189800047B7047003802400038014000000240D5
:1018A8000004024000080240000C02400010024000
:1018B8000014024000180240001C0240003C014095
:1018C80080B483B000AF78600B467B8013467B7092
:1018D8007B78002B03D07A887B689A6103E07B8849
:1018E8001A047B689A6100BF0C37BD465DF8047B1B
:1018F8007047F0B58FB00AAF78607B68002B01D1D4
:10190800012354E07B681B68FB607B6893F8B9325D
:10191800DBB2002B06D17B68002283F8B8227868F6
:1019280007F0B0F97B68032283F8B922FB68DB6B08
:1019380003F48073002B02D17B6800221A617B6854
:101948001B68184604F04CFB7B681B683B607E688C
:101958006D4606F110040FCC0FC50FCC0FC594E8E7
:10196800030085E80300331D0ECB386804F0C6FA7F
:101978007B681B680121184604F043FB7B681B68E1
:101988003B607E686D4606F110040FCC0FC50FCC86
:101998000FC594E8030085E80300331D0ECB3868B3
:1019A80004F056FC7B68012283F8B922002318460C
:1019B8001437BD46F0BD90B589B004AF78600846CD
:1019C80011461A460346FB700B46BB7013467B70E4
:1019D8007B6893F8B832012B01D102237FE07B6842
:1019E800012283F8B822FA78796813469B001344D9
:1019F800DB000B443D3300221A70FA7879681346ED
:101A08009B001344DB000B4438337A781A70FA7859
:101A1800796813469B001344DB000B4440333A8D2E
:101A28001A80FA78796813469B001344DB000B444C
:101A38003933FA781A70FA78796813469B00134498
:101A4800DB000B443F3397F824201A70FA78BB78F0
:101A580003F07F03D8B2796813469B001344DB0078
:101A68000B443A3302461A7097F90230002B0ADA0F
:101A7800FA78796813469B001344DB000B443B3328
:101A880001221A7009E0FA78796813469B0013441A
:101A9800DB000B443B3300221A70FA78796813464E
:101AA8009B001344DB000B443C3397F820201A704A
:101AB8007B6818687C78BA78F9783B8D029397F838
:101AC8002430019397F820300093234604F04AFD10
:101AD8000346FB737B68002283F8B822FB7B184619
:101AE8001437BD4690BD80B584B000AF78600B4612
:101AF800FB700023FB737B6893F8B832012B01D18C
:101B080002230FE07B68012283F8B8227B681B68F8
:101B1800FA781146184604F092FF7B68002283F891
:101B2800B822FB7B18461037BD4680BD80B582B011
:101B380000AF7860084611461A460346FB700B460C
:101B4800BB7013467B70FA78796813469B00134480
:101B5800DB000B443B33BA781A70FA78796813467D
:101B68009B001344DB000B443F337A781A703B7CAC
:101B7800002B14D1FA78796813469B001344DB00D4
:101B88000B44423303221A70FA78796813469B0093
:101B98001344DB000B443D333A7F1A7009E0FA78AE
:101BA800796813469B001344DB000B44423302223E
:101BB8001A707B78032B00F2D68001A252F823F02A
:101BC800D91B0008591D0008451C0008CF1C000837
:101BD8003B7C012B40F0C980BB78002B40F0C580CE
:101BE8003B8B002B09D1FA78796813469B00134484
:101BF800DB000B44513301221A70FA7879681346D6
:101C08009B001344DB000B4451331B78002B0AD193
:101C1800FA78796813469B001344DB000B4442337F
:101C280000221A70A1E0FA78796813469B001344E1
:101C3800DB000B44423302221A7096E0BB78002B7B
:101C480020D1FA78796813469B001344DB000B44D3
:101C580051331B78002B0AD1FA78796813469B0018
:101C68001344DB000B44423300221A707EE0FA78FA
:101C7800796813469B001344DB000B44423302226D
:101C88001A7073E0FA78796813469B001344DB00F6
:101C98000B4450331B78002B0AD1FA787968134625
:101CA8009B001344DB000B44423300221A705DE0B2
:101CB800FA78796813469B001344DB000B444233DF
:101CC80002221A7052E0BB78002B20D1FA7879688A
:101CD80013469B001344DB000B4451331B78002B45
:101CE8000AD1FA78796813469B001344DB000B4449
:101CF800423300221A7039E0FA78796813469B005B
:101D08001344DB000B44423302221A702EE0FA78A7
:101D1800796813469B001344DB000B4450331B784F
:101D2800002B0AD1FA78796813469B001344DB002C
:101D38000B44423300221A7018E0FA787968134687
:101D48009B001344DB000B44423302221A700DE05F
:101D5800FA78796813469B001344DB000B4442333E
:101D680000221A7002E000BF00E000BFFA7879682C
:101D780013469B001344DB000B4444337A691A6012
:101D8800FA78398B786813469B001344DB000344C8
:101D980048331960FA78796813469B001344DB00CE
:101DA8000B445C3300221A70FA78796813469B005A
:101DB8001344DB000B444C3300221A60FA7879682C
:101DC80013469B001344DB000B443933FA781A702E
:101DD800FA78796813469B001344DB000B445D33A3
:101DE80000221A707B681868FA7813469B0013441F
:101DF800DB0038337A68D1187B681B69DBB21A4676
:101E080004F0C2FC034618460837BD4680BD00BF33
:101E180080B586B000AF78607B681B683B613B6922
:101E2800FB607B681B68184604F0CFF90346012B5A
:101E380040F0EF807B681B68184604F0B3F903464E
:101E4800002B00F0E5807B681B68184604F0AAF9AF
:101E5800034603F40013B3F5001F04D17B681B6825
:101E68004FF400125A617B681B68184604F09AF90F
:101E7800034603F48013B3F5801F04D17B681B6805
:101E88004FF480125A617B681B68184604F08AF97F
:101E9800034603F08063B3F1806F04D17B681B684D
:101EA8004FF080625A617B681B68184604F07AF923
:101EB800034603F00203022B03D17B681B6802224E
:101EC8005A617B681B68184604F06CF9034603F0F6
:101ED8000053B3F1005F15D17B681B684FF00052C7
:101EE8005A61FB6803F588631B6803F00103002B44
:101EF80008D1786806F044FF7B681B680121184602
:101F080004F064FA7B681B68184604F04BF9034632
:101F180003F08073B3F1807F02D1786801F07CF917
:101F28007B681B68184604F03DF9034603F0080374
:101F3800082B06D1786806F007FF7B681B68082223
:101F48005A617B681B68184604F02CF9034603F0B5
:101F58000073B3F1007F38D17B681B68184604F022
:101F68005DFDB86000237B6125E07B6903F00F030A
:101F7800BA6822FA03F303F00103002B18D07B6937
:101F88005A01FB68134403F5A0631B6803F400437C
:101F9800B3F5004F06D17B69DBB21946786800F0CB
:101FA800CFF805E07B69DBB21946786800F008FDD8
:101FB8007B6901337B617B689A687B699A42D4D8D4
:101FC8007B681B684FF000725A617B681B68184673
:101FD80004F0E8F8034603F01003102B01D10123A5
:101FE80000E00023002B14D07B681B687A68126815
:101FF800926922F010029A61786801F061F87B68B2
:102008001B687A681268926942F010029A6100E0CF
:1020180000BF1837BD4680BD80B582B000AF78607C
:102028007B6893F8B832012B01D1022313E07B6857
:10203800012283F8B8227B681B68184603F0BFFFAB
:102048007B681B680121184604F028FA7B68002287
:1020580083F8B822002318460837BD4680BD80B5EE
:1020680082B000AF78607B6893F8B832012B01D159
:1020780002230DE07B68012283F8B8227B681B6885
:10208800184604F021FE7B68002283F8B82200235A
:1020980018460837BD4680BD80B582B000AF78606D
:1020A8007B681B68184604F0CDF9034618460837C4
:1020B800BD4680BD80B483B000AF78600B46FB702E
:1020C800FA78796813469B001344DB000B445C33B1
:1020D8001B7818460C37BD465DF8047B704780B402
:1020E80083B000AF78600B46FB70FA7879681346C6
:1020F8009B001344DB000B444C331B6818460C3719
:10210800BD465DF8047B704780B582B000AF78604B
:102118007B681B68184604F013FA0346184608370C
:10212800BD4680BD80B582B000AF78607B681B6813
:10213800184604F0EEF9034618460837BD4680BD38
:1021480080B586B000AF78600B46FB707B681B6873
:102158007B617B693B61FB78FB60FB685A013B69EB
:10216800134403F5A0639B6803F00403042B1AD1FE
:10217800FB685A013B69134403F5A0631A4604231C
:102188009360FB685A013B69134403F5A063194641
:10219800FB685A013B69134403F5A063DB6843F00D
:1021A8000203CB60D1E0FB685A013B69134403F595
:1021B800A0639B6803F48073B3F5807F2DD1FB681F
:1021C8005A013B69134403F5A0631A464FF4807320
:1021D80093607968FA6813469B001344DB000B444C
:1021E8005D3307221A70FB685A013B69134403F5F3
:1021F800A0631946FB685A013B69134403F5A063C1
:10220800DB6843F00203CB607B681B68FA68D2B2D4
:102218001146184604F013FC97E0FB685A013B6925
:10222800134403F5A0639B6803F02003202B09D116
:10223800FB685A013B69134403F5A0631A4620233F
:10224800936082E0FB685A013B69134403F5A0637D
:102258009B6803F00803082B35D1FB685A013B69DA
:10226800134403F5A0631946FB685A013B691344FC
:1022780003F5A063DB6843F00203CB607968FA6872
:1022880013469B001344DB000B445D3305221A7090
:10229800FB685A013B69134403F5A0631A461023EF
:1022A8009360FB685A013B69134403F5A0631A461F
:1022B800082393607B681B68FA68D2B211461846F7
:1022C80004F0BDFB41E0FB685A013B69134403F588
:1022D800A0639B6803F48063B3F5806F35D1FB6816
:1022E8005A013B69134403F5A0631946FB685A0178
:1022F8003B69134403F5A063DB6843F00203CB603A
:102308007B681B68FA68D2B21146184604F097FB3E
:10231800FB685A013B69134403F5A0631A4610236E
:1023280093607968FA6813469B001344DB000B44FA
:102338005D3308221A70FB685A013B69134403F5A0
:10234800A0631A464FF480639360FB685A013B69A7
:10235800134403F5A0639B6803F40073B3F5007F8F
:1023680023D1FB685A013B69134403F5A06319465E
:10237800FB685A013B69134403F5A063DB6843F02B
:102388000203CB607B681B68FA68D2B21146184614
:1023980004F055FBFB685A013B69134403F5A0633D
:1023A8001A464FF40073936006E3FB685A013B69D1
:1023B800134403F5A0639B6803F00103012B40F06D
:1023C800FF807B681B69002B1BD07968FA6813466D
:1023D8009B001344DB000B4448331A68FB6859011F
:1023E8003B690B4403F5A0631B69C3F31203D11ABD
:1023F8007868FA6813469B001344DB0003444C33A7
:1024080019607968FA6813469B001344DB000B4493
:102418005D3301221A707968FA6813469B001344E9
:10242800DB000B44583300221A60FB685A013B69F1
:10243800134403F5A0631A46012393607968FA6888
:1024480013469B001344DB000B443F331B78002BDF
:102458000AD07968FA6813469B001344DB000B44E2
:102468003F331B78022B22D1FB685A013B69134486
:1024780003F5A0631946FB685A013B69134403F549
:10248800A063DB6843F00203CB607B681B68FA68D3
:10249800D2B21146184604F0D2FAFB685A013B69D9
:1024A800134403F5A0631A461023936071E079681A
:1024B800FA6813469B001344DB000B443F331B7838
:1024C800032B2BD1FB685A013B69134403F5A06326
:1024D8001946FB685A013B69134403F5A0631B685E
:1024E80043F000530B607968FA6813469B00134465
:1024F800DB000B445C3301221A70FB68D8B27968A0
:10250800FA6813469B001344DB000B445C331B78CA
:102518001A460146786806F041FC3AE07968FA689C
:1025280013469B001344DB000B443F331B78012BFD
:102538002FD17968FA6813469B001344DB000B44DB
:102548005C3301221A707968FA6813469B001344B9
:10255800DB000B4450331B7883F00103D8B2796851
:10256800FA6813469B001344DB000B4450330246C1
:102578001A70FB68D8B27968FA6813469B0013444E
:10258800DB000B445C331B781A460146786806F07A
:1025980005FC7968FA6813469B001344DB000B447A
:1025A80050331B7883F00103D8B27968FA68134670
:1025B8009B001344DB000B44503302461A70FBE1C6
:1025C800FB685A013B69134403F5A0639B6803F059
:1025D8000203022B40F01B81FB685A013B6913443C
:1025E80003F5A0631946FB685A013B69134403F5D8
:1025F800A063DB6823F00203CB607968FA681346AE
:102608009B001344DB000B445D331B78012B0AD17C
:102618007968FA6813469B001344DB000B445C336B
:1026280001221A70D9E07968FA6813469B001344AE
:10263800DB000B445D331B78052B0AD17968FA68F7
:1026480013469B001344DB000B445C3305221A70CD
:10265800C3E07968FA6813469B001344DB000B4417
:102668005D331B78062B0AD07968FA6813469B00FD
:102678001344DB000B445D331B78082B56D1796873
:10268800FA6813469B001344DB000B4458331B685D
:10269800591C7868FA6813469B001344DB0003440E
:1026A800583319607968FA6813469B001344DB00B5
:1026B8000B4458331B68032B14D97968FA681346FE
:1026C8009B001344DB000B44583300221A607968DE
:1026D800FA6813469B001344DB000B445C33042266
:1026E8001A7009E07968FA6813469B001344DB0006
:1026F8000B445C3302221A70FB685A013B6913448D
:1027080003F5A0631B68BB60BB6823F08043BB6014
:10271800BB6843F00043BB60FB685A013B69134444
:1027280003F5A0631A46BB68136056E07968FA6837
:1027380013469B001344DB000B445D331B78032BCB
:1027480023D17968FA6813469B001344DB000B44D5
:102758005C3302221A70FB685A013B69134403F583
:10276800A0631B68BB60BB6823F08043BB60BB6889
:1027780043F00043BB60FB685A013B69134403F50F
:10278800A0631A46BB68136027E07968FA681346A5
:102798009B001344DB000B445D331B78072B1CD1D3
:1027A8007968FA6813469B001344DB000B445833DE
:1027B8001B68591C7868FA6813469B001344DB00B1
:1027C8000344583319607968FA6813469B00134428
:1027D800DB000B445C3304221A70FB685A013B6926
:1027E800134403F5A0631A4602239360FB68D8B22A
:1027F8007968FA6813469B001344DB000B445C338A
:102808001B781A460146786806F0C8FAD4E0FB68D7
:102818005A013B69134403F5A0639B6803F08003E6
:10282800802B3FD1FB685A013B69134403F5A06331
:102838001946FB685A013B69134403F5A063DB683A
:1028480043F00203CB607968FA6813469B0013448F
:10285800DB000B4458331B68591C7868FA68134628
:102868009B001344DB000344583319607968FA6805
:1028780013469B001344DB000B445D3306221A7099
:102888007B681B68FA68D2B21146184604F0D7F87C
:10289800FB685A013B69134403F5A0631A46802379
:1028A800936089E0FB685A013B69134403F5A06310
:1028B8009B6803F01003102B7ED17968FA681346E1
:1028C8009B001344DB000B443F331B78032B23D1BD
:1028D8007968FA6813469B001344DB000B445833AD
:1028E80000221A60FB685A013B69134403F5A06390
:1028F8001946FB685A013B69134403F5A063DB687A
:1029080043F00203CB607B681B68FA68D2B21146B9
:10291800184604F094F846E07968FA6813469B0074
:102928001344DB000B443F331B78002B0AD0796833
:10293800FA6813469B001344DB000B443F331B78B3
:10294800022B30D17968FA6813469B001344DB00E8
:102958000B44583300221A607B681B69002B22D174
:102968007968FA6813469B001344DB000B445D3317
:1029780003221A70FB685A013B69134403F5A063EC
:102988001946FB685A013B69134403F5A063DB68E9
:1029980043F00203CB607B681B68FA68D2B2114629
:1029A800184604F04CF8FB685A013B69134403F5D8
:1029B800A0631A461023936000BF1837BD4680BD38
:1029C80080B586B000AF78600B46FB707B681B68EB
:1029D8007B617B693B61FB78FB60FB685A013B6963
:1029E800134403F5A0639B6803F00403042B1AD176
:1029F800FB685A013B69134403F5A0631A46042394
:102A08009360FB685A013B69134403F5A0631946B8
:102A1800FB685A013B69134403F5A063DB6843F084
:102A28000203CB6047E3FB685A013B69134403F593
:102A3800A0639B6803F02003202B42D1FB685A0156
:102A48003B69134403F5A0631A4620239360796811
:102A5800FA6813469B001344DB000B443D331B7894
:102A6800012B40F028837968FA6813469B001344C9
:102A7800DB000B443D3300221A707968FA6813466C
:102A88009B001344DB000B445C3302221A70FB6882
:102A98005A013B69134403F5A0631946FB685A01C0
:102AA8003B69134403F5A063DB6843F00203CB6082
:102AB8007B681B68FA68D2B21146184603F0BFFF5C
:102AC800F9E2FB685A013B69134403F5A0639B686C
:102AD80003F04003402B40D17968FA6813469B0005
:102AE8001344DB000B445D3304221A707968FA68DA
:102AF80013469B001344DB000B443D3301221A703C
:102B08007968FA6813469B001344DB000B4458337A
:102B180000221A60FB685A013B69134403F5A0635D
:102B28001946FB685A013B69134403F5A063DB6847
:102B380043F00203CB607B681B68FA68D2B2114687
:102B4800184603F07CFFFB685A013B69134403F500
:102B5800A0631A4640239360ADE2FB685A013B69C3
:102B6800134403F5A0639B6803F40073B3F5007F77
:102B780023D1FB685A013B69134403F5A063194646
:102B8800FB685A013B69134403F5A063DB6843F013
:102B98000203CB607B681B68FA68D2B211461846FC
:102BA80003F04DFFFB685A013B69134403F5A0632A
:102BB8001A464FF4007393607DE2FB685A013B6943
:102BC800134403F5A0639B6803F00103012B36D17E
:102BD8007968FA6813469B001344DB000B445833AA
:102BE80000221A60FB685A013B69134403F5A0638D
:102BF8001946FB685A013B69134403F5A063DB6877
:102C080043F00203CB607B681B68FA68D2B21146B6
:102C1800184603F014FFFB685A013B69134403F597
:102C2800A0631A46012393607968FA6813469B00EB
:102C38001344DB000B445D3301221A703BE2FB684E
:102C48005A013B69134403F5A0639B6803F008032A
:102C5800082B2CD1FB685A013B69134403F5A06388
:102C68001A4608239360FB685A013B69134403F52D
:102C7800A0631946FB685A013B69134403F5A06336
:102C8800DB6843F00203CB607B681B68FA68D2B24A
:102C98001146184603F0D3FE7968FA6813469B007C
:102CA8001344DB000B445D3305221A7003E2FB6812
:102CB8005A013B69134403F5A0639B6803F01003B2
:102CC800102B56D17968FA6813469B001344DB0031
:102CD8000B44583300221A607968FA6813469B003F
:102CE8001344DB000B445D3303221A707968FA68D9
:102CF80013469B001344DB000B443D331B78002B29
:102D080014D17968FA6813469B001344DB000B441E
:102D18003C331B78002B09D17968FA6813469B006D
:102D28001344DB000B443D3301221A70FB685A013F
:102D38003B69134403F5A0631946FB685A013B69D4
:102D4800134403F5A063DB6843F00203CB607B68A0
:102D58001B68FA68D2B21146184603F070FEFB6889
:102D68005A013B69134403F5A0631A461023936084
:102D7800A1E1FB685A013B69134403F5A0639B6812
:102D880003F08003802B2CD1FB685A013B69134464
:102D980003F5A0631946FB685A013B69134403F520
:102DA800A063DB6843F00203CB607B681B68FA68AA
:102DB800D2B21146184603F042FE7968FA68134603
:102DC8009B001344DB000B445D3306221A70FB683A
:102DD8005A013B69134403F5A0631A4680239360A4
:102DE80069E1FB685A013B69134403F5A0639B68DA
:102DF80003F48063B3F5806F36D1FB685A013B69F1
:102E0800134403F5A0631946FB685A013B69134450
:102E180003F5A063DB6843F00203CB607B681B68A3
:102E2800FA68D2B21146184603F009FEFB685A0147
:102E38003B69134403F5A0631A4610239360FB68AB
:102E48005A013B69134403F5A0631A464FF48063A3
:102E580093607968FA6813469B001344DB000B44BF
:102E68005D3308221A7026E1FB685A013B69134456
:102E780003F5A0639B6803F00203022B40F01B815B
:102E8800FB685A013B69134403F5A0631946FB68C4
:102E98005A013B69134403F5A063DB6823F002037E
:102EA800CB607968FA6813469B001344DB000B4437
:102EB8005D331B78012B37D17968FA6813469B007C
:102EC8001344DB000B445C3301221A707968FA68FA
:102ED80013469B001344DB000B443F331B78022B43
:102EE8000BD07968FA6813469B001344DB000B4447
:102EF8003F331B78032B40F0C5807968FA68134686
:102F08009B001344DB000B4451331B7883F001030F
:102F1800D8B27968FA6813469B001344DB000B4467
:102F2800513302461A70ADE07968FA6813469B007F
:102F38001344DB000B445D331B78032B0AD17968FB
:102F4800FA6813469B001344DB000B445C330222EF
:102F58001A7097E07968FA6813469B001344DB00FF
:102F68000B445D331B78042B0AD17968FA68134641
:102F78009B001344DB000B445C3302221A7081E08F
:102F88007968FA6813469B001344DB000B445D33F1
:102F98001B78052B0AD17968FA6813469B001344FD
:102FA800DB000B445C3305221A706BE07968FA6821
:102FB80013469B001344DB000B445D331B78062B40
:102FC8000AD07968FA6813469B001344DB000B4467
:102FD8005D331B78082B55D17968FA6813469B0036
:102FE8001344DB000B4458331B68591C7868FA6893
:102FF80013469B001344DB00034458331960796877
:10300800FA6813469B001344DB000B4458331B68D3
:10301800032B14D97968FA6813469B001344DB0024
:103028000B44583300221A607968FA6813469B00EB
:103038001344DB000B445C3304221A7009E07968FE
:10304800FA6813469B001344DB000B445C330222EE
:103058001A70FB685A013B69134403F5A0631B68A7
:10306800BB60BB6823F08043BB60BB6843F0004390
:10307800BB60FB685A013B69134403F5A0631A4619
:10308800BB681360FB685A013B69134403F5A063EE
:103098001A4602239360FB68D8B27968FA68134627
:1030A8009B001344DB000B445C331B781A46014633
:1030B800786805F073FE00BF1837BD4680BD000074
:1030C80080B58AB000AF78607B681B687B627B6ADA
:1030D8003B627B681B681B6AFB61FB6903F00F039B
:1030E800BB61FB695B0C03F00F037B61FB691B0988
:1030F800C3F30A033B617B69022B03D0052B00F065
:10310800828083E03B69002B7FD07968BA691346D7
:103118009B001344DB000B4444331B68002B74D022
:103128007B6818687968BA6913469B001344DB000A
:103138000B4444331B683A6992B2194603F009F804
:103148007968BA6913469B001344DB000B44443387
:103158001A683B69D1187868BA6913469B0013440A
:10316800DB000344443319607968BA6913469B004D
:103178001344DB000B444C331A683B69D118786858
:10318800BA6913469B001344DB0003444C331960AF
:10319800BB695A013B6A134403F5A0631A691D4BC6
:1031A8001340002B31D0BB695A013B6A134403F525
:1031B800A0631B68FB60FB6823F08043FB60FB682F
:1031C80043F00043FB60BB695A013B6A134403F5B3
:1031D800A0631A46FB6813607968BA6913469B00B6
:1031E8001344DB000B4450331B7883F00103D8B23F
:1031F8007968BA6913469B001344DB000B445033CB
:1032080002461A7001E000BF00E000BF00BF283787
:10321800BD4680BD0000F81F80B586B000AF78605D
:103228007B681B687B617B693B613B6903F588634D
:103238001B68FB603B6903F588631B68BB60BB6860
:1032480023F02E03BB60FB6803F00203022B0BD1B3
:10325800FB6803F00103012B02D1786805F082FDB9
:10326800BB6843F00203BB60FB6803F00803082B4C
:1032780032D1BB6843F00803BB60FB6803F004036A
:10328800042B26D17B689B69022B13D1FB6803F4BE
:10329800C023B3F5802F06D17B681B68022118462E
:1032A80003F094F811E07B681B680121184603F0CD
:1032B8008DF80AE07B68DB68012B06D13B6903F5D2
:1032C80080631A464EF660235360786805F074FDF3
:1032D80002E0786805F07EFDFB6803F02003202BF0
:1032E80003D1BB6843F02003BB603B6903F58863E7
:1032F8001A46BB68136000BF1837BD4680BD000082
:1033080090B585B000AF78607B68002B01D10123B0
:103318001FE17B6893F83D30DBB2002B06D17B6858
:10332800002283F83C207868FDF712FA7B68242293
:1033380083F83D207B681B687A681268126822F05F
:1033480001021A607B681B687A681268126842F486
:1033580000421A607B681B687A681268126822F457
:1033680000421A6001F0DCF9F8607B685B687B4A10
:10337800934207D8FB687A4A934294BF01230023FB
:10338800DBB206E0FB68774A934294BF012300232F
:10339800DBB2002B01D00123DBE0FB68724AA2FB01
:1033A80003239B0CBB607B681B687A6812685268B1
:1033B80022F03F01BA680A435A607B681A687B6842
:1033C8001B681B6A23F03F017B685B686348834284
:1033D80002D8BB68013309E0BB684FF4967000FB64
:1033E80003F36248A0FB03039B0901330B431362F9
:1033F8007B6818687B681B68DB6923F44F4222F0FE
:10340800FF027B685B6855498B420DD8FB68591EE3
:103418007B685B685B00B1FBF3F30133C3F30B0319
:10342800042B38BF04234FE07B689B68002B11D125
:10343800FB685C1E7B6859680B465B000B44B4FB59
:10344800F3F30133C3F30B03002B0CBF0123002359
:10345800DBB212E0FB685C1E7B6859680B469B0078
:103468000B4499000B44B4FBF3F30133C3F30B0390
:10347800002B0CBF01230023DBB2002B01D001235A
:1034880022E07B689B68002B0ED1FB685C1E7B6882
:1034980059680B465B000B44B4FBF3F30133C3F3E9
:1034A8000B0343F400430FE0FB685C1E7B6859681C
:1034B8000B469B000B4499000B44B4FBF3F3013318
:1034C800C3F30B0343F440431343C3617B681B6896
:1034D8007A681268126822F0C0017A68D0697A683E
:1034E800126A02430A431A607B681A687B681B6881
:1034F8009B6823F4034323F0FF037968086979681C
:10350800C96801430B4393607B681B687A6812683B
:10351800D26822F0FF017A6850697A68926902439A
:103528000A43DA607B681B687A681268126842F09E
:1035380001021A607B6800221A647B68202283F8E3
:103548003D207B6800221A637B68002283F83E20B6
:10355800002318461437BD4690BD00BFA086010061
:103568007F841E00FF083D0083DE1B43D34D62109D
:1035780080B588B000AF78607B68002B01D101234B
:1035880027E17B6893F84130DBB2002B09D17B68D7
:10359800002283F840207B68904A5A637868FDF7D8
:1035A8004FF97B68022283F841207B681A687B68A0
:1035B8001B68DB6923F47B6323F00F03D3617B680B
:1035C8001B6802221A627B685B69022B60D07B68E9
:1035D800DB68002B02D110237B6101E020237B6193
:1035E8007B689B68202B02D87B695B007B6101208C
:1035F80001F0A0F9F8607B681B69B3F5007F25D15D
:103608007B68DB68002B10D07B699B00FA68B2FBF3
:10361800F3F213469B0013445B001A467B685B6910
:10362800B2FBF3F305333B611FE07B69DB00FA680B
:10363800B2FBF3F213469B0013445B001A467B6807
:103648005B69B2FBF3F305333B610EE0FA687B6913
:10365800B2FBF3F213469B0013445B001A467B68E7
:103668005B69B2FBF3F305333B613B695C4AA2FB40
:103678000323DB083B613B6903F00103BB613A6943
:10368800BB69D31A5B08FB61BB691B02BB6103E022
:103698000223FB610023BB61FB69012B02D9FB6993
:1036A800FF2B07D97B685B6C43F010027B685A6478
:1036B80001238EE07B681B687A681169BA69114337
:1036C800FA690A431A627B681A687B681B68DB69B7
:1036D80023F47B6323F00F03796848687968896865
:1036E80008437968C96808437968896901430B43C5
:1036F80043F40063D3617B681B6A012B61D17B684B
:10370800384A5A637B681B68374A934201D1374A63
:1037180001E04FF040227B681B6833498B4201D19E
:10372800324B01E04FF04023DB6923F47B6323F045
:103738000F03D3617B681B682B4A934201D12B4B43
:1037480001E04FF0402302221A627B681B68264A78
:10375800934201D1254B01E04FF04023DB697B8187
:103768007B685B68B3F5007F03D07B685B68002BE0
:1037780003D14FF480733B6101E000233B613B6957
:103788009AB27B689B6899B27B68DB6898B27B6861
:103798009B699BB203439BB20B439BB213439AB200
:1037A8007B8913439BB243F400637B817B681B686E
:1037B8000D4A934201D10D4B01E04FF040237A8925
:1037C800DA617B6800225A647B68012283F8412011
:1037D800002318462037BD4680BD00BFEF380008DB
:1037E800CDCCCCCC053A000800380040003400406D
:1037F80080B483B000AF786000BF0C37BD465DF879
:10380800047B704780B483B000AF786000BF0C378A
:10381800BD465DF8047B704780B483B000AF786024
:1038280000BF0C37BD465DF8047B704780B582B099
:1038380000AF78607B681B687A68526A1288DA6021
:103848007B685B6A9A1C7B685A627B685B8D9BB25B
:10385800013B9AB27B685A857B685B8D9BB2002BD3
:103868000ED17B681B687A681268526822F0A00241
:103878005A607B68012283F841207868FFF7B8FF17
:1038880000BF0837BD4680BD80B582B000AF786004
:103898007B68DB6A7A681268D26892B21A807B68A1
:1038A800DB6A9A1C7B68DA627B685B8E9BB2013BA1
:1038B8009AB27B685A867B685B8E9BB2002B0ED1CE
:1038C8007B681B687A681268526822F060025A6046
:1038D8007B68012283F841207868FFF793FF00BFD7
:1038E8000837BD4680BD80B586B000AF78607B687C
:1038F8001B689B687B617B6893F84130DBB2042BC3
:103908003AD17B6903F00103012B09D17B681B685D
:103918005B6803F04003402B02D17868FFF7B4FFDF
:103928007B6903F04003402B26D17B681B685B68EA
:1039380003F02003202B1FD17B681B687A6812686C
:10394800526822F060025A6000233B617B681B6862
:10395800DB683B617B681B689B683B613B697B68F4
:10396800012283F841207B685B6C43F002027B688C
:103978005A647868FFF750FF7B6893F84130DBB2F0
:10398800032B36D17B6903F00203022B09D17B6834
:103998001B685B6803F08003802B02D17868FFF70F
:1039A80045FF7B6903F00803082B22D17B681B685D
:1039B8005B6803F02003202B1BD17B681B687A68A7
:1039C8001268526822F0A0025A600023FB607B68EC
:1039D8001B689B68FB60FB687B68012283F84120B9
:1039E8007B685B6C43F004027B685A647868FFF775
:1039F80013FF00BF1837BD4680BD000080B588B0F2
:103A080000AF78607B681B689B68FB617B681B68FC
:103A1800A24A934201D1A24B01E04FF040239B6898
:103A2800BB617B681B685B687B617B681B689B4A22
:103A3800934201D19A4B01E04FF040235B683B6110
:103A48007B685B68B3F5007F04D07B685B68002BFC
:103A580040F09980FB6903F00203022B07D17B69D0
:103A680003F08003002B02D0786800F025F9BB69C9
:103A780003F00103012B07D13B6903F04003002B3E
:103A880002D0786800F0C6F9BB6903F04003402B08
:103A98003AD13B6903F02003002B35D07B681B68C3
:103AA8007E4A934201D17E4B01E04FF040237A6871
:103AB80012687A498A4201D1794A01E04FF04022DE
:103AC800526822F060025A607B681B687A68126844
:103AD800526822F0A0025A600023FB607B681B68D2
:103AE800DB68FB607B681B689B68FB60FB687B6826
:103AF800012283F841207B685B6C43F002027B68FB
:103B08005A647868FFF788FEFB6903F00803082BFE
:103B180040F0BE807B6903F02003002B00F0B880E2
:103B28007B681B687A681268526822F0A0025A60A3
:103B38007B681B68594A934201D1594B01E04FF009
:103B480040237A68126855498A4201D1544A01E0F3
:103B58004FF04022526822F060025A600023BB6096
:103B68007B681B689B68BB60BB687B68012283F825
:103B780041207B685B6C43F004027B685A64786878
:103B8800FFF74AFE84E0BB6903F00203022B07D16A
:103B98003B6903F08003002B02D0786800F0BEF880
:103BA800FB6903F00103012B07D17B6903F0400394
:103BB800002B02D0786800F0FBF8FB6903F04003A3
:103BC800402B2FD17B6903F02003002B2AD07B6880
:103BD8001B687A681268526822F060025A607B6833
:103BE8001B682E4A934201D12D4B01E04FF0402330
:103BF8007A68126829498A4201D1294A01E04FF0BE
:103C08004022526822F0A0025A607B68012283F8A1
:103C180041207B685B6C43F002027B685A647868D9
:103C2800FFF7FAFDBB6903F00803082B31D13B69A4
:103C380003F02003002B2CD07B681B68174A9342A3
:103C480001D1174B01E04FF040237A6812681349FD
:103C58008A4201D1124A01E04FF04022526822F014
:103C6800A0025A607B681B687A681268526822F062
:103C780060025A607B68012283F841207B685B6C94
:103C880043F004027B685A647868FFF7C5FD00E0DA
:103C980000BF00BF2037BD4680BD00BF00380040D0
:103CA8000034004080B483B000AF786000BF0C37A8
:103CB800BD465DF8047B704780B582B000AF786080
:103CC8007B681A687B685B6A981C796848621B88FD
:103CD800D3607B685B8D9BB2013B9AB27B685A8547
:103CE8007B685B8D9BB2002B13D17B681B687A685D
:103CF8001268526822F0A0025A607B685B8E9BB201
:103D0800002B06D17B68012283F841207868FFF7F1
:103D1800C9FF00BF0837BD4680BD000080B582B02E
:103D280000AF78607B681B681F4A934201D11F4A25
:103D380001E04FF040227B685B6A981C7968486212
:103D48001B88D3607B685B8D9BB2013B9AB27B6812
:103D58005A857B685B8D9BB2002B21D17B681B68E1
:103D6800114A934201D1114B01E04FF040237A6888
:103D780012680D498A4201D10C4A01E04FF04022F5
:103D8800526822F0A0025A607B685B8E9BB2002BBF
:103D980006D17B68012283F841207868FFF782FF0B
:103DA80000BF0837BD4680BD0038004000340040E1
:103DB80080B582B000AF78607B68DB6A991C7A684E
:103DC800D1627A681268D26892B21A807B685B8E78
:103DD8009BB2013B9AB27B685A867B685B8E9BB22A
:103DE800002B13D17B681B687A681268526822F02E
:103DF80060025A607B685B8D9BB2002B06D17B68A2
:103E0800012283F841207868FFF74CFF00BF08378C
:103E1800BD4680BD80B582B000AF78607B68DB6A44
:103E2800991C7A68D1627A6812681E498A4201D15F
:103E38001D4A01E04FF04022D26892B21A807B6896
:103E48005B8E9BB2013B9AB27B685A867B685B8E1D
:103E58009BB2002B21D17B681B68124A934201D187
:103E6800114B01E04FF040237A6812680D498A42ED
:103E780001D10D4A01E04FF04022526822F0600261
:103E88005A607B685B8D9BB2002B06D17B68012250
:103E980083F841207868FFF705FF00BF0837BD4663
:103EA80080BD00BF003800400034004080B586B0B7
:103EB80000AF78607B68002B01D101235BE27B684F
:103EC8001B6803F00103002B75D0A34B9B6803F01C
:103ED8000C03042B0CD0A04B9B6803F00C03082B9D
:103EE80012D19D4B5B6803F48003B3F5800F0BD1AF
:103EF800994B1B6803F40033002B5BD07B685B682D
:103F0800002B57D1012336E27B685B68B3F5803F0D
:103F180006D1914A904B1B6843F4803313601DE02F
:103F28007B685B68B3F5A02F0CD18B4A8A4B1B6862
:103F380043F480231360884A874B1B6843F480331B
:103F480013600BE0844A844B1B6823F480331360AE
:103F5800814A814B1B6823F4802313607B685B686C
:103F6800002B13D0FDF7D4F9386108E0FDF7D0F93C
:103F780002463B69D31A642B01D90323FBE1764B34
:103F88001B6803F40033002BF0D014E0FDF7C0F9F0
:103F9800386108E0FDF7BCF902463B69D31A642B87
:103FA80001D90323E7E16C4B1B6803F40033002BB2
:103FB800F0D100E000BF7B681B6803F00203002B10
:103FC80063D0654B9B6803F00C03002B0BD0624B4E
:103FD8009B6803F00C03082B1CD15F4B5B6803F450
:103FE8008003002B16D15C4B1B6803F00203002BE7
:103FF80005D07B68DB68012B01D00123BBE1564962
:10400800554B1B6823F0F8027B681B69DB001343E0
:104018000B603AE07B68DB68002B20D04F4B012215
:104028001A60FDF775F9386108E0FDF771F9024685
:104038003B69D31A022B01D903239CE1464B1B6829
:1040480003F00203002BF0D04349434B1B6823F0D5
:10405800F8027B681B69DB0013430B6015E03F4BDC
:1040680000221A60FDF754F9386108E0FDF750F9AD
:1040780002463B69D31A022B01D903237BE1364B55
:104088001B6803F00203002BF0D17B681B6803F068
:104098000803002B30D07B685B69002B16D0304BAF
:1040A80001221A60FDF734F9386108E0FDF730F9AC
:1040B80002463B69D31A022B01D903235BE1264B45
:1040C8005B6F03F00203002BF0D015E0244B0022B5
:1040D8001A60FDF71DF9386108E0FDF719F9024685
:1040E8003B69D31A022B01D9032344E11A4B5B6FB6
:1040F80003F00203002BF0D17B681B6803F0040374
:10410800002B00F0A0800023FB75134B1B6C03F001
:104118008053002B0FD10023BB600F4A0E4B1B6C42
:1041280043F0805313640C4B1B6C03F08053BB604B
:10413800BB680123FB750B4B1B6803F48073002BD2
:1041480021D1084A074B1B6843F480731360FDF7BD
:10415800DFF8386111E000BF003802400000474234
:10416800800E474200700040FDF7D2F802463B69D6
:10417800D31A022B01D90323FDE0814B1B6803F4FA
:104188008073002BF0D07B689B68012B06D17D4A99
:104198007C4B1B6F43F0010313671CE07B689B6833
:1041A800052B0CD1774A774B1B6F43F00403136739
:1041B800744A744B1B6F43F0010313670BE0714A99
:1041C800704B1B6F23F0010313676E4A6D4B1B6F17
:1041D80023F0040313677B689B68002B15D0FDF759
:1041E80097F838610AE0FDF793F802463B69D31A5D
:1041F80041F28832934201D90323BCE0614B1B6F23
:1042080003F00203002BEED014E0FDF781F83861CB
:104218000AE0FDF77DF802463B69D31A41F288327D
:10422800934201D90323A6E0564B1B6F03F0020308
:10423800002BEED1FB7D012B05D1524A514B1B6C53
:1042480023F0805313647B689B69002B00F09280F5
:104258004C4B9B6803F00C03082B5CD07B689B6974
:10426800022B41D1484B00221A60FDF751F8386102
:1042780008E0FDF74DF802463B69D31A022B01D935
:10428800032378E03F4B1B6803F00073002BF0D149
:104298003C497B68DA697B681B6A1A437B685B6AFE
:1042A8009B011A437B689B6A5B08013B1B041A430A
:1042B8007B68DB6A1B0613434B60334B01221A6091
:1042C800FDF726F8386108E0FDF722F802463B6959
:1042D800D31A022B01D903234DE02A4B1B6803F0A4
:1042E8000073002BF0D045E0274B00221A60FDF741
:1042F8000FF8386108E0FDF70BF802463B69D31A5E
:10430800022B01D9032336E01E4B1B6803F0007310
:10431800002BF0D12EE07B689B69012B01D1012392
:1043280029E0184B5B68FB60FB6803F480027B683C
:10433800DB699A421CD1FB6803F03F027B681B6A69
:104348009A4215D1FA6847F6C07313407A68526AE0
:1043580093420DD1FB6803F440327B689B6A9A4212
:1043680006D1FB6803F070627B68DB6A9A4201D071
:10437800012300E0002318461837BD4680BD00BF62
:1043880000700040003802406000474280B584B0A9
:1043980000AF786039607B68002B01D10123CCE045
:1043A800684B1B6803F00F023B689A420CD2654BBE
:1043B8003A68D2B21A70634B1B6803F00F023B686D
:1043C8009A4201D00123B8E07B681B6803F002031E
:1043D800002B20D07B681B6803F00403002B05D05A
:1043E800594A594B9B6843F4E05393607B681B68B8
:1043F80003F00803002B05D0534A534B9B6843F442
:10440800604393605049504B9B6823F0F0027B68EF
:104418009B6813438B607B681B6803F00103002BC8
:1044280044D07B685B68012B07D1474B1B6803F4BA
:104438000033002B19D101237FE07B685B68022BD6
:1044480003D07B685B68032B07D13F4B1B6803F0E5
:104458000073002B09D101236FE03B4B1B6803F06D
:104468000203002B01D1012367E03749364B9B68D3
:1044780023F003027B685B6813438B60FCF748FFFB
:10448800F8600AE0FCF744FF0246FB68D31A41F2E1
:104498008832934201D903234FE02B4B9B6803F0EA
:1044A8000C027B685B689B009A42EBD1254B1B682A
:1044B80003F00F023B689A420CD9224B3A68D2B2F9
:1044C8001A70204B1B6803F00F023B689A4201D018
:1044D800012332E07B681B6803F00403002B08D03B
:1044E8001949194B9B6823F4E0527B68DB68134336
:1044F8008B607B681B6803F00803002B09D0124906
:10450800114B9B6823F460427B681B69DB001343F3
:104518008B6000F021F801460B4B9B681B0903F0E8
:104528000F030A4AD35C21FA03F3094A1360094BC3
:104538001B681846FCF7A8FE002318461037BD462E
:1045480080BD00BF003C0240003802405094000883
:1045580000000020040000202DE9F04F8FB000AFCC
:104568000023FB6200237B630023BB6200233B63C1
:10457800624B9B6803F00C03042B07D0082B08D070
:10458800002B40F0B2805E4B3B63B1E05D4B3B6378
:10459800AEE05A4B5B6803F03F03FB62574B5B6826
:1045A80003F48003002B4ED0544B5B689B094FF0FB
:1045B800000440F2FF114FF0000201EA030102EA91
:1045C80004020B46144660017862786A40EAD360B8
:1045D80078625B013B62D7E908345B1A64EB02043A
:1045E8004FEA841949EA93694FEA8318B8EB03083C
:1045F80069EB04094FEAC903FB61FB6943EA587395
:10460800FB614FEAC803BB61D7E9068918EB0108CB
:1046180049EB02094FEA49237B617B6943EAD85396
:104628007B614FEA48233B61D7E904894046494604
:10463800FB6A4FF000041A462346FBF7C1FD034608
:104648000C467B6343E02D4B5B689B094FF00004ED
:1046580040F2FF114FF0000201EA030102EA0402EE
:104668000B4614466001F860F86840EAD360F860C9
:104678005B01BB60D7E902345B1A64EB0204A60154
:1046880046EA93669D01ED1A66EB0406F3007B602B
:104698007B6843EA55737B60EB003B6097E86000FA
:1046A8006D1846EB02064FEA862B4BEA955B4FEAFC
:1046B800852A55465E4628463146FB6A4FF0000477
:1046C8001A462346FBF77CFD03460C467B630B4BDF
:1046D8005B681B0C03F0030301335B00BB627A6B5E
:1046E800BB6AB2FBF3F33B6302E0054B3B6300BFDD
:1046F8003B6B18463C37BD46BDE8F08F003802409A
:104708000024F40000127A0080B400AF034B1B6849
:104718001846BD465DF8047B704700BF00000020C6
:1047280080B500AFFFF7F0FF0146054B9B689B0A79
:1047380003F00703034AD35C21FA03F3184680BD4C
:10474800003802406094000880B500AFFFF7DCFF36
:104758000146054B9B685B0B03F00703034AD35CD8
:1047680021FA03F3184680BD00380240609400081F
:1047780080B586B000AF786000237B6100233B6181
:104788007B681B6803F00103002B05D17B681B685D
:1047980003F00403002B35D0624B00221A60FCF7AB
:1047A800B7FD786108E0FCF7B3FD02467B69D31AD0
:1047B800022B01D90323B0E05B4B1B6803F00063B5
:1047C800002BF0D158497B685B689A017B689B682D
:1047D8001B071343C1F88430524B01221A60FCF7BF
:1047E80097FD786108E0FCF793FD02467B69D31AD0
:1047F800022B01D9032390E04B4B1B6803F00063A5
:10480800002BF0D07B681B6803F00203002B00F03C
:1048180083800023FB60444A434B1B6C43F0805366
:104828001364414B1B6C03F08053FB60FB683F4AE9
:104838003E4B1B6843F480731360FCF769FD786195
:1048480008E0FCF765FD02467B69D31A022B01D903
:10485800032362E0354B1B6803F48073002BF0D010
:10486800314B1B6F03F440733B613B69002B2FD026
:104878007B68DB6803F440723B699A4228D02A4B74
:104888001B6F23F440733B61294B01221A60284BAC
:1048980000221A60244A3B691367234B1B6F03F0FD
:1048A8000103012B14D1FCF733FD78610AE0FCF712
:1048B8002FFD02467B69D31A41F28832934201D90F
:1048C80003232AE0184B1B6F03F00203002BEED0E2
:1048D8007B68DB6803F44073B3F5407F0DD1124960
:1048E800114B9B6823F4F8127B68DB6823F0704354
:1048F80023F4407313438B6005E00B4A0A4B9B6813
:1049080023F4F81393600849074B1A6F7B68DB6838
:10491800C3F30B0313430B67002318461837BD4630
:1049280080BD00BF68004742003802400070004068
:10493800400E474280B487B000AF786000237B61A7
:1049480000233B610023FB600023BB607B68012BD5
:104958003DD1224B9B6803F40003FB60FB68002BEE
:1049680004D0012B2FD11E4B7B612FE01B4B5B68C2
:1049780003F48003B3F5800F08D1184B5B6803F08C
:104988003F03184AB2FBF3F33B6107E0134B5B6844
:1049980003F03F03144AB2FBF3F33B610F4BD3F828
:1049A80084309B09C3F308033A6902FB03F3BB6035
:1049B8000A4BD3F884301B0F03F00703BA68B2FB25
:1049C800F3F37B6102E000237B6100BF00BF7B69DA
:1049D80018461C37BD465DF8047B70470038024016
:1049E8000080BB0000127A000024F40080B582B079
:1049F80000AF78607B68002B01D1012355E07B680C
:104A080000229A627B6893F85130DBB2002B06D102
:104A18007B68002283F850207868FCF7FDF87B68F3
:104A2800022283F851207B681B687A681268126832
:104A380022F040021A607B681B687A6851687A68BD
:104A4800926811437A68D26811437A6812691143EF
:104A58007A68526911437A68926902F400721143C4
:104A68007A68D26911437A68126A11437A68926A3D
:104A78000A431A607B681B687A689269120C02F014
:104A880004017A68526A0A435A607B681B687A682C
:104A98001268D26922F40062DA617B6800225A65E2
:104AA8007B68012283F85120002318460837BD4649
:104AB80080BD80B582B000AF78607B68002B01D1E3
:104AC80001231DE07B6893F83D30DBB2002B06D153
:104AD8007B68002283F83C207868FCF789FA7B68B9
:104AE800022283F83D207B681A687B6804331946E4
:104AF800104600F0FBF97B68012283F83D20002373
:104B080018460837BD4680BD80B582B000AF7860D2
:104B18007B68002B01D101231DE07B6893F83D30B1
:104B2800DBB2002B06D17B68002283F83C20786832
:104B380000F015F87B68022283F83D207B681A682C
:104B48007B6804331946104600F0D0F97B680122CF
:104B580083F83D20002318460837BD4680BD80B441
:104B680083B000AF786000BF0C37BD465DF8047BAA
:104B78007047000080B584B000AF786039607B680A
:104B88001B6801223968184600F09AFC7B681B688C
:104B9800154A934204D07B681B68144A934201D19A
:104BA800012300E00023002B07D07B681B687A688C
:104BB8001268526C42F400425A647B681B689B6816
:104BC80003F00703FB60FB68062B07D07B681B68B4
:104BD8007A681268126842F001021A6000231846C7
:104BE8001037BD4680BD00BF0000014000040140F1
:104BF80080B584B000AFF860B9607A60FB6893F85C
:104C08003C30012B01D10223B4E0FB68012283F878
:104C18003C20FB68022283F83D207B680C2B00F2C5
:104C28009F8001A252F823F0654C0008694D0008E6
:104C3800694D0008694D0008A54C0008694D000839
:104C4800694D0008694D0008E74C0008694D0008E7
:104C5800694D0008694D0008274D0008FB681B686E
:104C6800B968184600F0E2F9FB681B68FA68126830
:104C7800926942F008029A61FB681B68FA68126838
:104C8800926922F004029A61FB681B68FA6812684C
:104C98009169BA6812690A439A6162E0FB681B6805
:104CA800B968184600F032FAFB681B68FA6812689F
:104CB800926942F400629A61FB681B68FA6812689C
:104CC800926922F480629A61FB681B68FA6812682C
:104CD8009169BA68126912020A439A6141E0FB6855
:104CE8001B68B968184600F087FAFB681B68FA6801
:104CF8001268D26942F00802DA61FB681B68FA6838
:104D08001268D26922F00402DA61FB681B68FA684B
:104D18001268D169BA6812690A43DA6121E0FB684E
:104D28001B68B968184600F0DBFAFB681B68FA686C
:104D38001268D26942F40062DA61FB681B68FA689B
:104D48001268D26922F48062DA61FB681B68FA682B
:104D58001268D169BA68126912020A43DA6100E07E
:104D680000BFFB68012283F83D20FB68002283F81E
:104D78003C20002318461037BD4680BD80B584B05E
:104D880000AF786039607B6893F83C30012B01D123
:104D98000223A6E07B68012283F83C207B6802227C
:104DA80083F83D207B681B689B68FB60FB6823F0E9
:104DB8007703FB60FB6823F47F43FB607B681B6819
:104DC800FA689A603B681B68402B67D0402B0BD869
:104DD800102B73D0102B02D8002B6FD078E0202B2B
:104DE8006CD0302B6AD073E0702B0DD0702B04D8A8
:104DF800502B33D0602B41D06AE0B3F5805F66D08A
:104E0800B3F5005F17D063E07B6818683B68996862
:104E18003B685A683B68DB6800F032FB7B681B68BC
:104E28009B68FB60FB6843F07703FB607B681B684B
:104E3800FA689A604CE07B6818683B6899683B6838
:104E48005A683B68DB6800F01BFB7B681B687A6864
:104E58001268926842F480429A6039E07B68186868
:104E68003B6859683B68DB681A4600F08FFA7B6834
:104E78001B685021184600F0E8FA29E07B6818689A
:104E88003B6859683B68DB681A4600F0AEFA7B68F5
:104E98001B686021184600F0D8FA19E07B6818688A
:104EA8003B6859683B68DB681A4600F06FFA7B6814
:104EB8001B684021184600F0C8FA09E07B681A68A8
:104EC8003B681B681946104600F0BFFA00E000BFB7
:104ED8007B68012283F83D207B68002283F83C2010
:104EE800002318461037BD4680BD000080B485B049
:104EF80000AF786039607B681B68FB607B68404A5C
:104F0800934213D07B68B3F1804F0FD07B683D4A42
:104F180093420BD07B683C4A934207D07B683B4A5C
:104F2800934203D07B683A4A934208D1FB6823F046
:104F38007003FB603B685B68FA681343FB607B683F
:104F48002F4A93422BD07B68B3F1804F27D07B68E0
:104F58002C4A934223D07B682B4A93421FD07B680C
:104F68002A4A93421BD07B68294A934217D07B6810
:104F7800284A934213D07B68274A93420FD07B6814
:104F8800264A93420BD07B68254A934207D07B6818
:104F9800244A934203D07B68234A934208D1FB6892
:104FA80023F44073FB603B68DB68FA681343FB60DB
:104FB800FB6823F080023B685B691343FB607B68F6
:104FC800FA681A603B689A687B68DA623B681A6814
:104FD8007B689A627B680A4A934203D07B680C4AD2
:104FE800934203D13B681A697B681A637B68012284
:104FF8005A6100BF1437BD465DF8047B704700BF97
:10500800000001400004004000080040000C00407F
:1050180000040140004001400044014000480140B4
:1050280000180040001C00400020004080B487B0F9
:1050380000AF786039607B681B6A23F001027B68E7
:105048001A627B681B6A7B617B685B683B617B6873
:105058009B69FB60FB6823F07003FB60FB6823F02F
:105068000303FB603B681B68FA681343FB607B69BA
:1050780023F002037B613B689B687A6913437B6179
:105088007B68204A934203D07B681F4A93420CD125
:105098007B6923F008037B613B68DB687A6913430B
:1050A8007B617B6923F004037B617B68154A93422B
:1050B80003D07B68144A934211D13B6923F480736F
:1050C8003B613B6923F400733B613B685B693A6968
:1050D80013433B613B689B693A6913433B617B68B7
:1050E8003A695A607B68FA689A613B685A687B68D3
:1050F8005A637B687A691A6200BF1C37BD465DF83F
:10510800047B7047000001400004014080B487B070
:1051180000AF786039607B681B6A23F010027B68F7
:105128001A627B681B6A7B617B685B683B617B6892
:105138009B69FB60FB6823F4E043FB60FB6823F496
:105148004073FB603B681B681B02FA681343FB60F3
:105158007B6923F020037B613B689B681B017A69AC
:1051680013437B617B68224A934203D07B68214AC0
:1051780093420DD17B6923F080037B613B68DB6838
:105188001B017A6913437B617B6923F040037B61D0
:105198007B68174A934203D07B68164A934213D11F
:1051A8003B6923F480633B613B6923F400633B6103
:1051B8003B685B699B003A6913433B613B689B69A9
:1051C8009B003A6913433B617B683A695A607B6884
:1051D800FA689A613B685A687B689A637B687A695F
:1051E8001A6200BF1C37BD465DF8047B704700BFDC
:1051F800000001400004014080B487B000AF78602F
:1052080039607B681B6A23F480727B681A627B684A
:105218001B6A7B617B685B683B617B68DB69FB6061
:10522800FB6823F07003FB60FB6823F00303FB605B
:105238003B681B68FA681343FB607B6923F40073BF
:105248007B613B689B681B027A6913437B617B68BF
:10525800214A934203D07B68204A93420DD17B694F
:1052680023F400637B613B68DB681B027A691343A4
:105278007B617B6923F480637B617B68164A934278
:1052880003D07B68154A934213D13B6923F48053BA
:105298003B613B6923F400533B613B685B691B013D
:1052A8003A6913433B613B689B691B013A691343A5
:1052B8003B617B683A695A607B68FA68DA613B68E7
:1052C8005A687B68DA637B687A691A6200BF1C37A0
:1052D800BD465DF8047B70470000014000040140B2
:1052E80080B487B000AF786039607B681B6A23F4AC
:1052F80080527B681A627B681B6A3B617B685B68CB
:105308007B617B68DB69FB60FB6823F4E043FB603F
:10531800FB6823F44073FB603B681B681B02FA6858
:105328001343FB603B6923F400533B613B689B6874
:105338001B033A6913433B617B68124A934203D0CB
:105348007B68114A934209D17B6923F480437B61CE
:105358003B685B699B017A6913437B617B687A6967
:105368005A607B68FA68DA613B685A687B681A6435
:105378007B683A691A6200BF1C37BD465DF8047B3A
:10538800704700BF000001400004014080B487B0AE
:1053980000AFF860B9607A60FB681B6A7B61FB68E4
:1053A8001B6A23F00102FB681A62FB689B693B6178
:1053B8003B6923F0F0033B617B681B013A691343A7
:1053C8003B617B6923F00A037B617A69BB681343FD
:1053D8007B61FB683A699A61FB687A691A6200BF67
:1053E8001C37BD465DF8047B704780B487B000AFBA
:1053F800F860B9607A60FB681B6A23F01002FB68EA
:105408001A62FB689B697B61FB681B6A3B617B696D
:1054180023F470437B617B681B037A6913437B61C8
:105428003B6923F0A0033B61BB681B013A69134346
:105438003B61FB687A699A61FB683A691A6200BF46
:105448001C37BD465DF8047B704780B485B000AF5B
:10545800786039607B689B68FB60FB6823F07003A9
:10546800FB603A68FB68134343F00703FB607B6803
:10547800FA689A6000BF1437BD465DF8047B704730
:1054880080B487B000AFF860B9607A603B60FB68B1
:105498009B687B617B6923F47F437B613B681A02CD
:1054A8007B681A43BB6813437A6913437B61FB68C3
:1054B8007A699A6000BF1C37BD465DF8047B704767
:1054C80080B487B000AFF860B9607A60BB6803F059
:1054D8001F03012202FA03F37B61FB681A6A7B69E6
:1054E800DB431A40FB681A62FB681A6ABB6803F060
:1054F8001F03796801FA03F31A43FB681A6200BFB5
:105508001C37BD465DF8047B7047000080B485B049
:1055180000AF786039607B6893F83C30012B01D18B
:1055280002235AE07B68012283F83C207B68022230
:1055380083F83D207B681B685B68FB607B681B68A1
:105548009B68BB60FB6823F07003FB603B681B68CB
:10555800FA681343FB607B681B68FA685A607B68CB
:105568001B68214A934222D07B681B68B3F1804FA5
:105578001DD07B681B681D4A934218D07B681B6846
:105588001B4A934213D07B681B681A4A93420ED079
:105598007B681B68184A934209D07B681B68174AC6
:1055A800934204D07B681B68154A93420CD1BB68B0
:1055B80023F08003BB603B685B68BA681343BB6039
:1055C8007B681B68BA689A607B68012283F83D2073
:1055D8007B68002283F83C20002318461437BD4618
:1055E8005DF8047B704700BF0000014000040040E4
:1055F80000080040000C0040000401400040014049
:105608000018004080B582B000AF78607B68002B3E
:1056180001D101233FE07B6893F83930DBB2002BDE
:1056280006D17B68002283F838207868FBF7C2FD32
:105638007B68242283F839207B681B687A681268A3
:10564800D26822F40052DA60786800F019F97B68B1
:105658001B687A681268126922F490421A617B68A2
:105668001B687A681268526922F02A025A617B68BC
:105678001B687A681268D26842F40052DA607B6864
:105688000022DA637B68202283F839207B68202295
:1056980083F83A20002318460837BD4680BD80B5F8
:1056A80088B002AFF860B9603B601346FB80002306
:1056B8007B61FB6893F83A30DBB2202B40F0908096
:1056C800BB68002B02D0FB88002B01D1012388E0A6
:1056D800FB6893F83830012B01D1022381E0FB6885
:1056E800012283F83820FB680022DA63FB68222253
:1056F80083F83A20FBF70CFE7861FB68FA889A85F4
:10570800FB68FA88DA85FB68002283F838205CE0B9
:10571800FB68DB8D9BB2013B9AB2FB68DA85FB68BC
:105728009B68B3F5805F2BD13B6800937B690022AF
:105738002021F86800F059F80346002B01D0032314
:105748004FE0BB683B61FB681B69002B0CD1FB6811
:105758001B685B689BB2C3F308039AB23B691A8063
:10576800BB680233BB6030E0FB681B685B689BB2B8
:10577800DBB29AB23B691A80BB680133BB6024E094
:105788003B6800937B6900222021F86800F02DF81F
:105798000346002B01D0032323E0FB681B69002B81
:1057A80008D1BB685A1CBA60FA6812685268D2B24B
:1057B8001A700AE0BB685A1CBA60FA681268526824
:1057C800D2B202F07F02D2B21A70FB68DB8D9BB2B4
:1057D800002B9DD1FB68202283F83A20002300E0AB
:1057E800022318461837BD4680BD80B584B000AF87
:1057F800F860B9603B601346FB712CE0BB69B3F1FC
:10580800FF3F28D0BB69002B07D0FBF781FD02467C
:105818003B68D21ABB699A421DD9FB681B68FA68B3
:105828001268D26822F4D072DA60FB681B68FA68E2
:105838001268526922F001025A61FB68202283F83B
:105848003920FB68202283F83A20FB68002283F87D
:10585800382003230FE0FB681B681A68BB681A40EE
:10586800BB689A420CBF01230023DBB21A46FB79BE
:105878009A42C3D0002318461037BD4680BD0000A9
:105888002DE9F04FA3B000AFF867FB6F1968FB6F05
:105898001B681B6923F44052FB6FDB6813430B61E1
:1058A800FB6F9A68FB6F1B691A43FB6F5B691A43AE
:1058B800FB6FDB691343C7F88430FB6F1968FB6F14
:1058C8001B68DB6823F4164222F00C02D7F88430F8
:1058D8001343CB60FB6F1968FB6F1B685B6923F48C
:1058E8004072FB6F9B6913434B61FB6FDB69B3F538
:1058F800004F40F07181FB6F1B68B44A934205D09A
:10590800FB6F1B68B24A934240F0B180FEF71CFF60
:10591800C7F88000FB6F1D68D7F8803019464FF034
:1059280000020B461446DB1844EB04045B1844EBF6
:105938000204E0007864786C40EA53707864DB0015
:105948003B64D7E9103413EB010844EB02094046E5
:105958004946FB6F5B684FF00004DB1844EB040416
:105968001A462346FAF72CFC03460C461A46994B6E
:10597800A3FB02235B091E01D7F8803019464FF0BC
:1059880000020B461446DB1844EB04045B1844EB96
:105998000204E000F863F86B40EA5370F863DB0038
:1059A800BB63D7E90E3413EB010844EB0209404608
:1059B8004946FB6F5B684FF00004DB1844EB0404B6
:1059C8001A462346FAF7FCFB03460C461A46814B57
:1059D800A3FB02135B09642101FB03F3D31ADB0069
:1059E80032337C4AA2FB03235B095B0003F4F873A0
:1059F8001E44D7F8803019464FF000020B46144673
:105A0800DB1844EB04045B1844EB0204E000786301
:105A1800786B40EA53707863DB003B63D7E90C345A
:105A280013EB010844EB020940464946FB6F5B68EB
:105A38004FF00004DB1844EB04041A462346FAF737
:105A4800BFFB03460C461A46624BA3FB02135B09D5
:105A5800642101FB03F3D31ADB0032335D4AA2FB56
:105A680003235B0903F007033344AB6040E2FEF70E
:105A780057FEC7F88000FB6F1A683A67D7F880307E
:105A880019464FF000020B461446DB1844EB040499
:105A98005B1844EB0204E000F862F86A40EA5370CD
:105AA800F862DB00BB62D7E90A345D1844EB0206F2
:105AB80028463146FB6F5B684FF00004DB1844EB67
:105AC80004041A462346FAF77BFB03460C461A469B
